{
    "contractName": "FundMe",
    "abi": [
        {
            "inputs": [],
            "stateMutability": "nonpayable",
            "type": "constructor"
        },
        {
            "stateMutability": "payable",
            "type": "fallback"
        },
        {
            "inputs": [],
            "name": "MINIMUM_ETH",
            "outputs": [
                {
                    "internalType": "uint256",
                    "name": "",
                    "type": "uint256"
                }
            ],
            "stateMutability": "view",
            "type": "function"
        },
        {
            "inputs": [],
            "name": "fund",
            "outputs": [],
            "stateMutability": "payable",
            "type": "function"
        },
        {
            "inputs": [],
            "name": "getBalance",
            "outputs": [
                {
                    "internalType": "uint256",
                    "name": "",
                    "type": "uint256"
                }
            ],
            "stateMutability": "view",
            "type": "function"
        },
        {
            "inputs": [
                {
                    "internalType": "address",
                    "name": "_addr",
                    "type": "address"
                },
                {
                    "internalType": "uint256",
                    "name": "_index",
                    "type": "uint256"
                }
            ],
            "name": "getFund",
            "outputs": [
                {
                    "internalType": "uint256",
                    "name": "",
                    "type": "uint256"
                }
            ],
            "stateMutability": "view",
            "type": "function"
        },
        {
            "inputs": [],
            "name": "i_owner",
            "outputs": [
                {
                    "internalType": "address",
                    "name": "",
                    "type": "address"
                }
            ],
            "stateMutability": "view",
            "type": "function"
        },
        {
            "inputs": [
                {
                    "internalType": "uint256",
                    "name": "",
                    "type": "uint256"
                }
            ],
            "name": "infopay",
            "outputs": [
                {
                    "internalType": "uint256",
                    "name": "amount",
                    "type": "uint256"
                },
                {
                    "internalType": "address",
                    "name": "sendor",
                    "type": "address"
                },
                {
                    "internalType": "uint256",
                    "name": "timestamp",
                    "type": "uint256"
                }
            ],
            "stateMutability": "view",
            "type": "function"
        },
        {
            "inputs": [],
            "name": "withdraw",
            "outputs": [],
            "stateMutability": "nonpayable",
            "type": "function"
        },
        {
            "stateMutability": "payable",
            "type": "receive"
        }
    ],
    "bytecode": "60a080604052346028573360805261046a908161002d8239608051818181609601526101ae0152f35b5f80fdfe6080806040526004361015610028575b5036156100205761001e61030c565b005b61001e61030c565b5f3560e01c90816312065fe014610293575080633ccfd60b1461019c57806386864f821461014b5780638bd99c4f146100fe578063b60d4288146100eb578063d5e3af45146100c95763dba6335f14610081575f61000f565b346100c5575f3660031901126100c5576040517f00000000000000000000000000000000000000000000000000000000000000006001600160a01b03168152602090f35b5f80fd5b346100c5575f3660031901126100c5576020604051670de0b6b3a76400008152f35b5f3660031901126100c55761001e61030c565b346100c55760403660031901126100c5576004356001600160a01b038116908190036100c5575f526001602052602061013c60243560405f206102f7565b90549060031b1c604051908152f35b346100c55760203660031901126100c5576004355f548110156100c5576101736060916102ab565b50805490600260018060a01b036001830154169101549060405192835260208301526040820152f35b346100c5575f3660031901126100c5577f00000000000000000000000000000000000000000000000000000000000000006001600160a01b0316338190036100c55747156100c5575f8080809347905af13d1561028e573d67ffffffffffffffff811161027a5760405190601f8101601f19908116603f0116820167ffffffffffffffff81118382101761027a5760405281525f60203d92013e5b1561023e57005b60405162461bcd60e51b81526020600482015260146024820152732330b4b632b2103a379039b2b7321022ba3432b960611b6044820152606490fd5b634e487b7160e01b5f52604160045260245ffd5b610237565b346100c5575f3660031901126100c557602090478152f35b5f548110156102e3575f8080526003919091027f290decd9548b62a8d60345a988386fc84ba6bc95484008f6362f93160ef3e5630191565b634e487b7160e01b5f52603260045260245ffd5b80548210156102e3575f5260205f2001905f90565b670de0b6b3a764000034106103ef576040516060810181811067ffffffffffffffff82111761027a576040523481526020810190338252604081014281525f54600160401b81101561027a5780600161036792015f556102ab565b9390936103dc57600292518455600184019060018060a01b039051166bffffffffffffffffffffffff60a01b82541617905551910155335f52600160205260405f208054600160401b81101561027a576103c6916001820181556102f7565b81549060031b9034821b915f19901b1916179055565b634e487b7160e01b5f525f60045260245ffd5b60405162461bcd60e51b815260206004820152601760248201527f6469646e742073656e6420656e6f756768206d6f6e65790000000000000000006044820152606490fdfea26469706673582212201dbdc06869165f53e07cb34849fb0c90757b66315220257dff3dea65e4a85d4064736f6c634300081b0033",
    "sourcePath": "/home/artemkarelov/projects/foundry-fund-me/src/FundMe.sol",
    "compiler": {
        "name": "solc",
        "version": "0.8.27+commit.40a35a09"
    },
    "functionHashes": {
        "MINIMUM_ETH()": "d5e3af45",
        "fund()": "b60d4288",
        "getBalance()": "12065fe0",
        "getFund(address,uint256)": "8bd99c4f",
        "i_owner()": "dba6335f",
        "infopay(uint256)": "86864f82",
        "withdraw()": "3ccfd60b"
    },
    "gasEstimates": {
        "creation": {
            "codeDepositCost": "226000",
            "executionCost": "infinite",
            "totalCost": "infinite"
        },
        "external": {
            "": "146104",
            "MINIMUM_ETH()": "263",
            "fund()": "146058",
            "getBalance()": "150",
            "getFund(address,uint256)": "4660",
            "i_owner()": "infinite",
            "infopay(uint256)": "10893",
            "withdraw()": "infinite"
        }
    }
}